:020000040800F2
:10000000800600202D020008690200086B0200082B
:100010006D0200086F020008710200080000000075
:100020000000000000000000000000007302000853
:10003000750200080000000077020008790200083D
:100040007B0200087B0200087B0200087B0200089C
:100050007B0200087B0200087B0200087B0200088C
:100060007B0200087B0200087B0200087B0200087C
:100070007B0200087B0200087B0200087B0200086C
:100080007B0200087B0200087B0200087B0200085C
:100090007B0200087B0200087B0200087B0200084C
:1000A0007B0200087B0200087B0200087B0200083C
:1000B0007B0200087B0200087B0200087B0200082C
:1000C0007B0200087B0200087B0200087B0200081C
:1000D0007B0200087B0200087B0200087B0200080C
:1000E0007B0200087B0200087B0200087B020008FC
:1000F0007B0200087B0200087B0200087B020008EC
:100100007B0200087B0200087B0200087B020008DB
:100110007B0200087B0200087B0200087B020008CB
:100120007B0200087B0200087B0200087B020008BB
:100130007B0200087B0200087B0200087B020008AB
:100140007B0200087B0200087B0200087B0200089B
:100150007B0200087B0200087B0200087B0200088B
:100160007B0200087B0200087B0200087B0200087B
:100170007B0200087B0200087B02000800000000F0
:100180007B0200087B02000800F002F800F03FF854
:100190000AA090E8000C82448344AAF10107DA45E2
:1001A00001D100F034F8AFF2090EBAE80F0013F0F5
:1001B000010F18BFFB1A43F001031847140D00008C
:1001C000240D00000023002400250026103A28BF3B
:1001D00078C1FBD8520728BF30C148BF0B607047B9
:1001E000642900F0AF80752900F0AC8000207047D2
:1001F0001FB500F02FFE00F029FA040000200021B6
:1002000000F012FE401C60601FBD10B510BD00F074
:10021000F7F91146FFF7ECFF00F01EFD00F028FA99
:1002200003B4FFF7F2FF03BC00F06CFA164817495D
:10023000174B99423CBF50F8042B41F8042BF8D3DC
:1002400014494FF000028B4238BF43F8042BFAD315
:10025000DFF84400016841F470010160BFF34F8F83
:10026000BFF36F8F0D480047FEE7FEE7FEE7FEE7AE
:10027000FEE7FEE7FEE7FEE7FEE7FEE7084809497E
:10028000094A0A4B70470000F00F000800000020E8
:10029000000000208006002088ED00E089010008B1
:1002A00080000020800600208002002080020020C4
:1002B0000FB41CB5084B06AA7B446946009005980C
:1002C00000F0EFF804460020694600F0FDF82046F3
:1002D0001CBC5DF814FB00000D0200002DE9F0418C
:1002E0000E460446002020622046E168884730B36D
:1002F000252805D0D4E901219047206A401CF2E767
:10030000E168204600278847050018D0A5F1410084
:10031000192802D820354FF4006732462946204676
:100320002760FFF75DFF40B1012804D0F61D26F0DD
:1003300007060836D8E7361DD6E72846DAE7206AEA
:10034000BDE8F0812DE9F0410646002410687529CA
:10035000314616A510D0AFF30080002802DA4042E3
:1003600013A507E031688A0701D512A502E0490705
:1003700004D511A5012401E0AFF3008000210A2279
:1003800006F1240709E0B0FBF2FCB0FBF2F302FB3C
:100390001C00303078541846491C0028F3D12346FD
:1003A0002A463046BDE8F04100F01CB800000000CD
:1003B0002D0000002B0000002000000070B5064654
:1003C00000F00CF80468054630460A22002100F0CF
:1003D00080F82C6070BD70477047704700487047C8
:1003E000200000202DE9F0470D469946924604462C
:1003F00000F124080168880604D5E06921F01001A5
:10040000216000E00120A84201DD471B00E0002739
:10041000A1697A1902EB0900081AA0612078C006C8
:1004200002D42046AFF30080002608E0D4E9012181
:100430001AF806009047206A401C761C20624E4540
:10044000F4DB2078C0060AD52046AFF3008006E032
:10045000D4E9012130209047206A401C2062381ED8
:10046000A7F10107F4DC07E0D4E9012118F8050041
:100470009047206A401C2062281EA5F10105F3DC8C
:100480002046AFF300802078000602D50220BDE8A8
:10049000F0870120FBE7000001694A1C026108782F
:1004A000704700B58FB0CDE90131002105910549B4
:1004B0007944CDE9031011466846FFF70FFF0FB0EE
:1004C00000BD0000E5FFFFFF0A6802F8010B0A60AB
:1004D00070472DE9F04791460F46804604460026B6
:1004E00014F8015B2DB100F031F80068405DC007E1
:1004F000F6D12B2D02D02D2D18D0641E4A46394638
:10050000204600F02BF827B13968A14201D1C7F885
:1005100000804FF0020471050BD54042002803DD36
:10052000FFF75CFF0460A007BDE8F08746F4806633
:10053000E4E70028F8DAFFF751FF04606FF00040AD
:10054000F2E70000004870472000002010B500F0DE
:100550007DF8001D10BD00BFD10800002DE9F05F3F
:10056000824615468B4600270AF10104B9460078F9
:10057000302801D09DB113E014F8010B0127782831
:1005800003D0582801D045B10AE00DB1102D07D194
:10059000002714F8010B102502E0082500E00A25C9
:1005A0000026B0460EE005FB080005FB06F101271A
:1005B0001FFA80F801EB1046B6F5803F00D3B9462C
:1005C00014F8010B294600F045F80028EBDABBF1DE
:1005D000000F05D00FB1641E00E05446CBF8004078
:1005E000B9F1000F06D0FFF7F9FE02210160C81E25
:1005F00000F003B848EA0640FAE730BCBDE8C09F07
:100600007546FFF79FFFAE4605006946534620F04A
:100610000700854618B020B5FFF730FEBDE8204042
:100620004FF000064FF000074FF000084FF0000BAE
:1006300021F00701AC46ACE8C009ACE8C009ACE861
:10064000C009ACE8C0098D467047000000487047FB
:10065000400000203A2800D2303820F02002412A01
:1006600001D3A2F13700884201D34FF0FF30704729
:1006700010B50446AFF300802046BDE81040FFF7F8
:10068000CFBD00004FF0013C50F8042B51F8043B63
:100690009A4221D1A2EB0C03934313EACC1317D156
:1006A00050F8042B51F8043B9A4215D1A2EB0C03ED
:1006B000934313EACC130BD150F8042B51F8043BAD
:1006C0009A4209D1A2EB0C03934313EACC13DBD07B
:1006D0004FF00000704700BFD01A01BAB1FA81F1A3
:1006E00001F0180122FA01F0CB40C1F12001DBB288
:1006F000C0B2C01A2CFA01F3D11A914311EAC31106
:10070000E6D1704701491820ABBEFEE72600020083
:100710007047000010B500F067F944F6206000F063
:1007200095FA00BF00F01CF900B112E010A11F48BB
:10073000FFF7BEFD044622461C491D4800F066FA3C
:100740001B4800F027FA01227F21194800F05EFAC9
:10075000E8E700BF17A11548FFF7AAFD04462246A7
:100760001249134800F052FA00F04CF910BD000095
:100770000D0A596F75206D6573736564207570205F
:1007800062726F2E2020507265737320616E792023
:100790006B657920746F20747279207468652050BD
:1007A0004F535420616761696E2E000000000020E5
:1007B000004400400D0A506F7374207761732073FA
:1007C00075636365737366756C6C0D0A00000000D9
:1007D0005E49096821F007015C4A11601146096809
:1007E00041F0020111605A49096841F48071584A88
:1007F000116000BF5649096801F480610029F9D0F1
:1008000010205349496821F0F851514A516011466E
:10081000496841EA006151601146096821F0807120
:10082000116000BF4A49096801F00071B1F1007F11
:10083000F8D04749C96821F00301454AD160114603
:10084000C96841F00201D1601146C96821F4FE4136
:1008500041F4A051D1601146C96821F0700141F006
:100860001001D1601146C96821F0C061D160114604
:10087000C96841F08071D1601146096841F080710A
:10088000116000BF3249096801F000710029F9D0F8
:100890002F49896821F003012D4A9160114689682A
:1008A00041F00301916000BF2949896801F00C0102
:1008B0000C29F9D12649896821F0F001244A916078
:1008C0001146896821F4E06191601146896821F43C
:1008D000605191601146096821F08061116000BF8C
:1008E0001B49096801F08061B1F1806FF8D01849A7
:1008F000096921F4FE41164A11611146096941F462
:10090000C05111611146096941F40031116111466C
:10091000096941F4803111611146096841F0806133
:10092000116000BF0A49096801F080610029F9D00F
:1009300007498831096821F44001054AC2F8881046
:100940001146096E41F40011116670470020024003
:10095000001002400148006870470000382C014038
:100960000248006800F0040070470000102C0140AD
:100970001A4909680021194A11601949C96C41F0E6
:100980001001174AD1641749096821F44001154A3A
:1009900011601146096841F4000111601146496A6D
:1009A00021F470420F494A62496A41F480520D496C
:1009B0004A620B49096E41F40061094A1166074910
:1009C000083108600121054A0C3A11604FF40141D9
:1009D000121D11601021014A11607047202C014046
:1009E000001002400010004800200549086004483B
:1009F0003838006840F00100014938390860704714
:100A0000382C01400348006820F0010001490860CB
:100A100070470000002C01401A48C06C40F00800EC
:100A20001849C8641848006820F4705016490860D6
:100A30000846006840F420500860134820300068E1
:100A400040F0EE601049203108600F48083000681F
:100A500040F470500C4908310860081D006820F40B
:100A60007050091D08600846006840F4A0500860F6
:100A70000548001D006820F060000349091D08605A
:100A80007047000000100240000C004800B50D48FF
:100A9000806D40F400300B4988650A488830006852
:100AA00020F00C00C1F888000846D0F8880040F01B
:100AB0000400C1F88800FFF7AFFF034800F010F80A
:100AC00000BD000000100240004400406422424388
:100AD0000723B2FBF3F100BF4A1E111EFCD1704781
:100AE000016821F001010160016821F0102101601D
:100AF000016821F400410160416821F440514160E6
:100B000042F28D01C160016841F00C0101601E4993
:100B100088421BD1016841F020010160016821F089
:100B200040010160016821F010010160016821F0BD
:100B300080010160016821F480710160016821F089
:100B400040010160016821F0010101600F49884204
:100B500009D1016A41F0400101620D49096841F083
:100B6000C0010B4A1160016841F00101016000BF42
:100B7000C16901F400110029FAD000BFC16901F474
:100B800080010029FAD07047004C0040004400402A
:100B900008380140014600BFC86900F02000002865
:100BA000FAD0888CC0B2704738B50546002427E0DB
:100BB0001448FFF7EFFF00909DF800000D2808D1C2
:100BC00000202855022210A10E4800F01FF82046F0
:100BD00038BD9DF800007F2807D18CB101226946FD
:100BE000084800F013F8641E0AE01F2C08DA0122FE
:100BF0006946044800F00AF89DF800002855641C76
:100C0000D6E70000004400400D0A0000F0B504469D
:100C10000E46174600250CE000BFE06900F080009A
:100C20000028FAD0705D20854FF49670FFF74EFFD4
:100C30006D1CBD42F0D300BFE06900F04000002809
:100C4000FAD0E06920F04000E061F0BD00E0401E15
:100C50000028FCD170470000E6B04FF0000BFFF712
:100C6000B7FDFFF713FF4F20FFF782FEFFF752FD9E
:100C7000FFF7BAFE7DE040F2B63422463D493E48D9
:100C8000FFF716FB65903C493C48659AFFF7BEFFAD
:100C90003A48FFF77FFF0746792F01D0592F17D128
:100CA00000BF37A13448FFF703FB65903249334852
:100CB000659AFFF7ABFF3048FFF776FF2E48FFF746
:100CC0007DFB0446322CECDB42F2DE608442E8DC41
:100CD000002503E000204DF825006D1C652DF9DB93
:100CE00004F164094B46224634A12348FFF7E0FA99
:100CF000659021492148659AFFF788FF4FF0000A67
:100D000000BFFFF72DFE90B1FFF724FE8046A8EB51
:100D10000B06C3460AF1010AB44208D84E4506D86C
:100D2000301B5DF82000401C311B4DF82100BAF546
:100D30007A7FE6DD2AA11048FFF7BAFA65900E49DE
:100D40000E48659AFFF762FF002510E05DF8250068
:100D500060B15DF8253062192EA10748FFF7A8FAA7
:100D6000659005490548659AFFF750FF6D1C652D94
:100D7000ECDB80E7600E000800000020004400402B
:100D8000456E74657220612076616C696420696EBD
:100D900074656765722077697468696E2074686528
:100DA00020626F756E6473206F6620353020616E2F
:100DB00064203939353075733A2000004C6F7765FF
:100DC00072626F756E64203A2025750D0A55707039
:100DD0006572626F756E64203A2025750D0A0000F9
:100DE00046696E616C206275636B657420636F7514
:100DF0006E740D0A2A2A2A2A2A2A2A2A2A2A2A2A02
:100E00002A2A2A2A2A2A2A2A2A2A2A2A2A2A2A2A42
:100E10000D0A00002564757320636F756E743A20A7
:100E200025640D0A0000000010B500290AD00878DA
:100E3000002807D005487844FFF724FC002801D09B
:100E4000002010BD0248784410BD0000AA00000038
:100E5000A20000004FF04070E1EE100A7047000061
:100E6000576F756C6420796F75206C696B652074A1
:100E70006F20757365206120637573746F6D206CCE
:100E80006F776572626F756E6420706572696F64EA
:100E90003F0D0A456E746572207920696620796578
:100EA00073206F7220616E79206F74686572206B99
:100EB000657920746F207573652074686520707281
:100EC00065736574206F6620257575730D0A0000C3
:100ED000F00F00080000002080060000C401000898
:100EE0001001000043000000F8FFFFFF00404040F9
:100EF00040404040404041414141414040404040ED
:100F00004040404040404040404040404005020298
:100F10000202020202020202020202020220202057
:100F200020202020202020020202020202029090B3
:100F300090909090101010101010101010101010B1
:100F40001010101010101010020202020202888805
:100F50008888888808080808080808080808080811
:100F600008080808080808080202020240000000F9
:100F70000000000000000000000000000000000071
:100F80000000000000000000000000000000000061
:100F90000000000000000000000000000000000051
:100FA0000000000000000000000000000000000041
:100FB0000000000000000000000000000000000031
:100FC0000000000000000000000000000000000021
:100FD0000000000000000000000000000000000011
:100FE0000000000000000000000000000000000001
:040000050800018965
:00000001FF
