:020000040800F2
:1000000008070020290200086502000867020008AE
:10001000690200086B0200086D0200080000000081
:100020000000000000000000000000006F02000857
:100030007102000800000000730200087502000849
:1000400077020008770200087702000877020008AC
:10005000770200087702000877020008770200089C
:10006000770200087702000877020008770200088C
:10007000770200087702000877020008770200087C
:10008000770200087702000877020008770200086C
:10009000770200087702000877020008770200085C
:1000A000770200087702000877020008770200084C
:1000B000770200087702000877020008770200083C
:1000C000770200087702000877020008770200082C
:1000D0007702000877020008E107000877020008AD
:1000E000770200087702000877020008770200080C
:1000F00077020008770200087702000877020008FC
:1001000077020008770200087702000877020008EB
:1001100077020008770200087702000877020008DB
:1001200077020008770200087702000877020008CB
:1001300077020008770200087702000877020008BB
:1001400077020008770200087702000877020008AB
:10015000770200087702000877020008770200089B
:10016000770200087702000877020008770200088B
:1001700077020008770200087702000800000000FC
:10018000770200087702000800F002F800F03CF85F
:100190000AA090E8000C82448344AAF10107DA45E2
:1001A00001D100F031F8AFF2090EBAE80F0013F0F8
:1001B000010F18BFFB1A43F0010318472C0C000075
:1001C0004C0C0000103A24BF78C878C1FAD8520706
:1001D00024BF30C830C144BF04680C6070470000C1
:1001E0000023002400250026103A28BF78C1FBD840
:1001F000520728BF30C148BF0B6070471FB500F0E1
:10020000EEFD1FBD10B510BD00F053F81146FFF70D
:10021000F5FF00F0C9FC00F071F803B4FFF7F2FF3E
:1002200003BC00F079F8000016481749174B9942B3
:100230003CBF50F8042B41F8042BF8D314494FF07D
:1002400000028B4238BF43F8042BFAD3DFF8440096
:10025000016841F470010160BFF34F8FBFF36F8FEE
:100260000D480047FEE7FEE7FEE7FEE7FEE7FEE794
:10027000FEE7FEE7FEE7FEE708480949094A0A4BA0
:1002800070470000080E0008000000205400002005
:100290000807002088ED00E089010008080100201F
:1002A000080700200803002008030020704770475B
:1002B0007047754600F02CF8AE4605006946534677
:1002C00020F00700854618B020B5FFF7D5FFBDE840
:1002D00020404FF000064FF000074FF000084FF0AD
:1002E000000B21F00701AC46ACE8C009ACE8C0093E
:1002F000ACE8C009ACE8C0098D46704710B50446AB
:10030000AFF300802046BDE81040FFF786BF000035
:1003100000487047A400002001491820ABBEFEE74A
:1003200026000200704700000348406920F48070F6
:1003300001494861704700000010004803484069C7
:1003400040F4807001494861704700000010004887
:100350002348C06C40F012002149C8646FF030009F
:10036000204908600846006840F0100008601D48F9
:100370000830006820F030001A490831086008464B
:10038000006840F030000860081F006820F004009A
:10039000091F086013480C30006820F03000114934
:1003A0000C3108606FF440300F490860084600685F
:1003B00040F4803008600846806820F4403088604F
:1003C0000846806840F4403088600846406820F461
:1003D000807048600846C06820F44030C8607047AC
:1003E00000100240000400480010004811B101292B
:1003F00008D103E04FF08042506304E04FF08042A8
:10040000906300BF00BF00BF704700004FF0804006
:10041000006A20F011004FF0804108622848C06C4B
:1004200040F001002649C8644FF09040006820F079
:100430000F004FF0904108600846006840F00A0045
:1004400008600846006A20F0FF0008620846006A5B
:1004500040F0110008621A48806D40F00100184910
:1004600088654F2089048862012048618007C06A3E
:100470000020C8620846C06A44F620610843490665
:10048000C86208468069002088610846806946F68F
:1004900068010843C90688614FF4C87048638863DF
:1004A0008006006840F0800008600846006A40F05E
:1004B000110008620846006840F0010008607047BB
:1004C000001002400348006820F004000149086061
:1004D00070470000140400480348006840F004001E
:1004E0000149086070470000140400485E4909682B
:1004F00021F007015C4A11601146096841F00201D0
:1005000011605A49096841F48071584A116000BF6E
:100510005649096801F480610029F9D01020534937
:10052000496821F0F851514A51601146496841EA41
:10053000006151601146096821F08071116000BFAF
:100540004A49096801F00071B1F1007FF8D04749CC
:10055000C96821F00301454AD1601146C96841F0DC
:100560000201D1601146C96821F4FE4141F4A05155
:10057000D1601146C96821F0700141F01001D160CD
:100580001146C96821F0C061D1601146C96841F0C7
:100590008071D1601146096841F08071116000BF1F
:1005A0003249096801F000710029F9D02F498968A2
:1005B00021F003012D4A91601146896841F0030141
:1005C000916000BF2949896801F00C010C29F9D11B
:1005D0002649896821F0F001244A91601146896812
:1005E00021F4E06191601146896821F460519160C5
:1005F0001146096821F08061116000BF1B4909683C
:1006000001F08061B1F1806FF8D01849096921F4D7
:10061000FE41164A11611146096941F4C051116148
:100620001146096941F4003111611146096941F42B
:10063000803111611146096841F08061116000BF8D
:100640000A49096801F080610029F9D00749883119
:10065000096821F44001054AC2F888101146096E64
:1006600041F4001111667047002002400010024062
:100670000748006800F0010038B10548006820F024
:10068000010003490860012070470020FCE70000DA
:10069000102C01400D48006E40F400600B490866C4
:1006A00041F63F700A490860012009491439086081
:1006B0004FF47A700649091D08600548283800681B
:1006C00040F090000249283908607047001002404D
:1006D000282C01400348006840F0010001490860EF
:1006E00070470000002C01401A48C06C40F0080020
:1006F0001849C8641848006820F47050164908600A
:100700000846006840F42050086013482030006814
:1007100040F0EE601049203108600F480830006852
:1007200040F470500C4908310860081D006820F43E
:100730007050091D08600846006840F4A050086029
:100740000548001D006820F060000349091D08608D
:100750007047000000100240000C004810B51C4813
:10076000806D40F400301A49886519488830006867
:1007700020F00C00C1F888000846D0F8880040F04E
:100780000400C1F88800FFF7AFFF124800F0A6F898
:1007900026200021002804DB0A07130E0E4A1354FA
:1007A00006E00A07140E0D4A00F00F031B1FD45475
:1007B00000BF2620002809DB00F01F020121914024
:1007C0004209920002F1E022C2F8001100BF10BD00
:1007D000001002400044004000E400E018ED00E09A
:1007E00008B533480088C0B200909DF8000000F0C2
:1007F000B1FA00285AD09DF800000D282ED12D48BE
:100800000068022852D100202B492A4A12688854D5
:1008100003222AA12648243800F0BEF82648007892
:10082000782817D024480078582813D022484078D8
:1008300078280FD02048407858280BD01E480078E0
:100840001F490873002088741B4840781D490873AD
:100850000020887400201749086027E09DF80000F8
:100860007F280ED11348006800B301226946104862
:10087000243800F091F80F480068401E0D490860C8
:1008800014E00C480068022810DA01226946084882
:10089000243800F081F89DF800000749054A1268E5
:1008A000885404480068401C0249086008BD0000E4
:1008B0002444004004000020000000200D0A3E00F7
:1008C000740000208C000020642242430723B2FB06
:1008D000F3F100BF4A1E111EFCD17047016821F0E0
:1008E00001010160016821F010210160016821F41B
:1008F00000410160416821F44051416042F28D01A4
:10090000C160016841F00C010160204988421BD19F
:10091000016841F020010160016821F0400101609F
:10092000016821F010010160016821F0800101607F
:10093000016821F480710160016821F040010160CB
:10094000016821F001010160114988420DD1016A5D
:1009500041F040010162016841F0200101600D4950
:10096000096841F0C0010B4A1160016841F00101C2
:10097000016000BFC16901F400110029FAD000BF75
:10098000C16901F480010029FAD07047004C004091
:100990000044004008380140F0B504460E461746B2
:1009A00000250CE000BFE06900F080000028FAD0CC
:1009B000705D20854FF49670FFF786FF6D1CBD4279
:1009C000F0D300BFE06900F040000028FAD0E069F1
:1009D00020F04000E061F0BD10B5012202A1034803
:1009E000FFF7DAFF10BD00003E00000000440040A9
:1009F000417B002905DD81684160417B491E4173CF
:100A000070470121C17400BFFAE72DE9F0410446A7
:100A10006068057805F0E00605F01F07402E11D04C
:100A200003DCEEB1202E1CD104E0802E0FD0A02ECE
:100A300017D111E03946204600F0E2F8204600F0D8
:100A4000F6F812E03946204600F0BFF90DE03946CD
:100A5000204600F09BF808E02046FFF7C9FF04E0BD
:100A600003E003206074E07300BF00BF16B160684C
:100A7000401C6060BDE8F0812DE9F0410446277B11
:100A8000A57C267C0120A074622F50D00EDC4E2F56
:100A900054D006DC422F49D0432F20D04C2F58D1C0
:100AA00028E0502F0FD0522F53D131E06E2F46D077
:100AB00004DC632F14D06C2F4BD11CE0702F03D0BB
:100AC000722F46D125E000BF042D07D0032D05D09D
:100AD000012E03D1002020740120E0733AE000BF12
:100AE000042D06D0032D04D01EB90120207400204F
:100AF000E0732FE000BF207D052808DA3EB9207D95
:100B0000401CC0B220750146204600F079F821E073
:100B100000BF207D002808DD3EB9207D401EC0B208
:100B200020750146204600F06BF813E000BF204618
:100B300000F0A7F8204600F083F80BE000BF042D7A
:100B400006D0032D04D0012E02D1204600F078F803
:100B500000E000BF00BFBDE8F08170B504460D465F
:100B600016462560656000206073A0730120E07365
:100B70000020207460740120A074E07400202075AF
:100B800066750021204600F03BF870BDC27C22B99A
:100B9000032242740222C27370470022C274426868
:100BA0008260417300BFF7E7FFF7A0FCFFF7D6FDB7
:100BB000FFF712FFFFF72AFCFFF76CFDFFF7C8FBFA
:100BC000FFF788FD00220A490A48FFF7C6FF012205
:100BD00009490A48FFF7C1FF09E000F061F800F099
:100BE00085F8044800F02CF8044800F029F8F4E7F0
:100BF00038000020740000204C0000208C000020F1
:100C000070B504460D46002D0DDB052D0BDC25755A
:100C100005EB85004FF4C87101EB8016617D30460D
:100C2000FFF7E4FB02E003206074E07370BD00B5E1
:100C30000246012050740821104600F055F800BD0E
:100C400010B50446A07C28B90120A0742046FFF707
:100C500013FF15E0607C20B1012806D002280DD1D9
:100C600004E02046FFF7D1FE09E000BFA07B20B9D9
:100C7000002060742046FFF7C8FE00BF00BF00BF21
:100C800010BD01684160002141738173C17301216E
:100C900001740021417401218174C1747047000006
:100CA00010B51048C07B30B1012809D002280CD003
:100CB000032814D10EE0FFF741FBFFF703FC0FE020
:100CC000FFF732FBFFF7FEFB0AE0FFF737FBFFF70A
:100CD00003FC05E0FFF728FBFFF7FEFB00E000BF89
:100CE00000BF10BD740000208173704710B5FFF77E
:100CF000BFFC48B31548407C022803D01348407C11
:100D000001280CD11148007C012808D10F48807BB4
:100D1000002804DD0D48807B401E0C4988730C4878
:100D2000407C022803D00A48407C01280CD10848A6
:100D3000007C012808D10648807B002804DD044897
:100D4000807B401E0249887310BD000074000020A3
:100D50008C000020014662292FD012DC4E2929D0B8
:100D600008DC0D292CD0422926D043291CD04C293F
:100D700029D11DE0502915D0522917D0582922D148
:100D80001CE070290FD006DC63290ED06C2910D02E
:100D90006E2918D10FE0722909D078290FD07F2948
:100DA00011D10EE000BF00BF00BF00BF00BF00BFF9
:100DB00000BF00BF00BF00BF00BF00BF00BF00BF3B
:100DC00000BF012070470020FCE700B502460B463B
:100DD0000220507419461046FFF786FF00BD4FF001
:100DE0004070E1EE100A7047080E00080000002075
:100DF00054000000C40100085C0E000854000020EC
:100E0000B4060000E001000800000000000000003F
:100E10004769766520526564204C454420636F6EB7
:100E200074726F6C20696E707574202859203D2093
:100E30004F6E2C204E203D206F6666293A0D0A0029
:100E400020252023832124A0202240234022235F29
:0C0E50005F5F24002524232221FF2000E6
:040000050800018965
:00000001FF
